{
  "contractName": "Payments",
  "abi": [
    {
      "inputs": [],
      "stateMutability": "payable",
      "type": "constructor",
      "payable": true
    },
    {
      "anonymous": false,
      "inputs": [
        {
          "indexed": true,
          "internalType": "contract IERC20",
          "name": "token",
          "type": "address"
        },
        {
          "indexed": false,
          "internalType": "address",
          "name": "to",
          "type": "address"
        },
        {
          "indexed": false,
          "internalType": "uint256",
          "name": "amount",
          "type": "uint256"
        }
      ],
      "name": "ERC20PaymentReleased",
      "type": "event"
    },
    {
      "anonymous": false,
      "inputs": [
        {
          "indexed": false,
          "internalType": "address",
          "name": "account",
          "type": "address"
        },
        {
          "indexed": false,
          "internalType": "uint256",
          "name": "shares",
          "type": "uint256"
        }
      ],
      "name": "PayeeAdded",
      "type": "event"
    },
    {
      "anonymous": false,
      "inputs": [
        {
          "indexed": false,
          "internalType": "address",
          "name": "from",
          "type": "address"
        },
        {
          "indexed": false,
          "internalType": "uint256",
          "name": "amount",
          "type": "uint256"
        }
      ],
      "name": "PaymentReceived",
      "type": "event"
    },
    {
      "anonymous": false,
      "inputs": [
        {
          "indexed": false,
          "internalType": "address",
          "name": "to",
          "type": "address"
        },
        {
          "indexed": false,
          "internalType": "uint256",
          "name": "amount",
          "type": "uint256"
        }
      ],
      "name": "PaymentReleased",
      "type": "event"
    },
    {
      "inputs": [
        {
          "internalType": "uint256",
          "name": "index",
          "type": "uint256"
        }
      ],
      "name": "payee",
      "outputs": [
        {
          "internalType": "address",
          "name": "",
          "type": "address"
        }
      ],
      "stateMutability": "view",
      "type": "function",
      "constant": true
    },
    {
      "inputs": [
        {
          "internalType": "address payable",
          "name": "account",
          "type": "address"
        }
      ],
      "name": "release",
      "outputs": [],
      "stateMutability": "nonpayable",
      "type": "function"
    },
    {
      "inputs": [
        {
          "internalType": "contract IERC20",
          "name": "token",
          "type": "address"
        },
        {
          "internalType": "address",
          "name": "account",
          "type": "address"
        }
      ],
      "name": "release",
      "outputs": [],
      "stateMutability": "nonpayable",
      "type": "function"
    },
    {
      "inputs": [
        {
          "internalType": "contract IERC20",
          "name": "token",
          "type": "address"
        },
        {
          "internalType": "address",
          "name": "account",
          "type": "address"
        }
      ],
      "name": "released",
      "outputs": [
        {
          "internalType": "uint256",
          "name": "",
          "type": "uint256"
        }
      ],
      "stateMutability": "view",
      "type": "function",
      "constant": true
    },
    {
      "inputs": [
        {
          "internalType": "address",
          "name": "account",
          "type": "address"
        }
      ],
      "name": "released",
      "outputs": [
        {
          "internalType": "uint256",
          "name": "",
          "type": "uint256"
        }
      ],
      "stateMutability": "view",
      "type": "function",
      "constant": true
    },
    {
      "inputs": [
        {
          "internalType": "address",
          "name": "account",
          "type": "address"
        }
      ],
      "name": "shares",
      "outputs": [
        {
          "internalType": "uint256",
          "name": "",
          "type": "uint256"
        }
      ],
      "stateMutability": "view",
      "type": "function",
      "constant": true
    },
    {
      "inputs": [
        {
          "internalType": "contract IERC20",
          "name": "token",
          "type": "address"
        }
      ],
      "name": "totalReleased",
      "outputs": [
        {
          "internalType": "uint256",
          "name": "",
          "type": "uint256"
        }
      ],
      "stateMutability": "view",
      "type": "function",
      "constant": true
    },
    {
      "inputs": [],
      "name": "totalReleased",
      "outputs": [
        {
          "internalType": "uint256",
          "name": "",
          "type": "uint256"
        }
      ],
      "stateMutability": "view",
      "type": "function",
      "constant": true
    },
    {
      "inputs": [],
      "name": "totalShares",
      "outputs": [
        {
          "internalType": "uint256",
          "name": "",
          "type": "uint256"
        }
      ],
      "stateMutability": "view",
      "type": "function",
      "constant": true
    },
    {
      "stateMutability": "payable",
      "type": "receive",
      "payable": true
    }
  ],
  "bytecode": "0x60e0604052731beb6235e160b4007b01e74483de4fbe4a10e23360809081527344dae7210064c7aed59fe174326fa8cf34efcd0f60a052731773b544f3ea46cd1d4cc6aaca8e5de337e2688960c0526200005e90600790600362000463565b5060408051606081018252602e8082526020820152600e918101919091526200008c906008906003620004cd565b506007805480602002602001604051908101604052809291908181526020018280548015620000e557602002820191906000526020600020905b81546001600160a01b03168152600190910190602001808311620000c6575b505050505060088054806020026020016040519081016040528092919081815260200182805480156200013857602002820191906000526020600020905b81548152602001906001019080831162000123575b50505050508051825114620001af5760405162461bcd60e51b815260206004820152603260248201527f5061796d656e7453706c69747465723a2070617965657320616e6420736861726044820152710cae640d8cadccee8d040dad2e6dac2e8c6d60731b60648201526084015b60405180910390fd5b6000825111620002025760405162461bcd60e51b815260206004820152601a60248201527f5061796d656e7453706c69747465723a206e6f207061796565730000000000006044820152606401620001a6565b60005b82518110156200026e576200025983828151811062000228576200022862000576565b602002602001015183838151811062000245576200024562000576565b60200260200101516200027760201b60201c565b80620002658162000542565b91505062000205565b5050506200058c565b6001600160a01b038216620002e45760405162461bcd60e51b815260206004820152602c60248201527f5061796d656e7453706c69747465723a206163636f756e74206973207468652060448201526b7a65726f206164647265737360a01b6064820152608401620001a6565b60008111620003365760405162461bcd60e51b815260206004820152601d60248201527f5061796d656e7453706c69747465723a207368617265732061726520300000006044820152606401620001a6565b6001600160a01b03821660009081526002602052604090205415620003b25760405162461bcd60e51b815260206004820152602b60248201527f5061796d656e7453706c69747465723a206163636f756e7420616c726561647960448201526a206861732073686172657360a81b6064820152608401620001a6565b60048054600181019091557f8a35acfbc15ff81a39ae7d344fd709f28e8600b4aa8c65c6b64bfe7fe36bd19b0180546001600160a01b0319166001600160a01b0384169081179091556000908152600260205260408120829055546200041a90829062000527565b600055604080516001600160a01b0384168152602081018390527f40c340f65e17194d14ddddb073d3c9f888e3cb52b5aae0c6c7706b4fbc905fac910160405180910390a15050565b828054828255906000526020600020908101928215620004bb579160200282015b82811115620004bb57825182546001600160a01b0319166001600160a01b0390911617825560209092019160019091019062000484565b50620004c992915062000510565b5090565b828054828255906000526020600020908101928215620004bb579160200282015b82811115620004bb578251829060ff16905591602001919060010190620004ee565b5b80821115620004c9576000815560010162000511565b600082198211156200053d576200053d62000560565b500190565b600060001982141562000559576200055962000560565b5060010190565b634e487b7160e01b600052601160045260246000fd5b634e487b7160e01b600052603260045260246000fd5b610bea806200059c6000396000f3fe60806040526004361061008a5760003560e01c80638b83209b116100595780638b83209b146101845780639852595c146101bc578063ce7c2ac2146101f2578063d79779b214610228578063e33b7de31461025e57600080fd5b806319165587146100d85780633a98ef39146100fa578063406072a91461011e57806348b750441461016457600080fd5b366100d3577f6ef95f06320e7a25a04a175ca677b7052bdd97131872c2192525a629f51be77033604080516001600160a01b0390921682523460208301520160405180910390a1005b600080fd5b3480156100e457600080fd5b506100f86100f3366004610946565b610273565b005b34801561010657600080fd5b506000545b6040519081526020015b60405180910390f35b34801561012a57600080fd5b5061010b610139366004610985565b6001600160a01b03918216600090815260066020908152604080832093909416825291909152205490565b34801561017057600080fd5b506100f861017f366004610985565b6103aa565b34801561019057600080fd5b506101a461019f3660046109be565b610592565b6040516001600160a01b039091168152602001610115565b3480156101c857600080fd5b5061010b6101d7366004610946565b6001600160a01b031660009081526003602052604090205490565b3480156101fe57600080fd5b5061010b61020d366004610946565b6001600160a01b031660009081526002602052604090205490565b34801561023457600080fd5b5061010b610243366004610946565b6001600160a01b031660009081526005602052604090205490565b34801561026a57600080fd5b5060015461010b565b6001600160a01b0381166000908152600260205260409020546102b15760405162461bcd60e51b81526004016102a890610a3f565b60405180910390fd5b60006102bc60015490565b6102c69047610ad0565b905060006102f383836102ee866001600160a01b031660009081526003602052604090205490565b6105c2565b9050806103125760405162461bcd60e51b81526004016102a890610a85565b6001600160a01b0383166000908152600360205260408120805483929061033a908490610ad0565b9250508190555080600160008282546103539190610ad0565b9091555061036390508382610607565b604080516001600160a01b0385168152602081018390527fdf20fd1e76bc69d672e4814fafb2c449bba3a5369d8359adf9e05e6fde87b056910160405180910390a1505050565b6001600160a01b0381166000908152600260205260409020546103df5760405162461bcd60e51b81526004016102a890610a3f565b6001600160a01b0382166000908152600560205260408120546040516370a0823160e01b81523060048201526001600160a01b038516906370a082319060240160206040518083038186803b15801561043757600080fd5b505afa15801561044b573d6000803e3d6000fd5b505050506040513d601f19601f8201168201806040525081019061046f91906109d7565b6104799190610ad0565b905060006104b283836102ee87876001600160a01b03918216600090815260066020908152604080832093909416825291909152205490565b9050806104d15760405162461bcd60e51b81526004016102a890610a85565b6001600160a01b03808516600090815260066020908152604080832093871683529290529081208054839290610508908490610ad0565b90915550506001600160a01b03841660009081526005602052604081208054839290610535908490610ad0565b909155506105469050848483610725565b604080516001600160a01b038581168252602082018490528616917f3be5b7a71e84ed12875d241991c70855ac5817d847039e17a9d895c1ceb0f18a910160405180910390a250505050565b6000600482815481106105a7576105a7610b86565b6000918252602090912001546001600160a01b031692915050565b600080546001600160a01b0385168252600260205260408220548391906105e99086610b0a565b6105f39190610ae8565b6105fd9190610b29565b90505b9392505050565b804710156106575760405162461bcd60e51b815260206004820152601d60248201527f416464726573733a20696e73756666696369656e742062616c616e636500000060448201526064016102a8565b6000826001600160a01b03168260405160006040518083038185875af1925050503d80600081146106a4576040519150601f19603f3d011682016040523d82523d6000602084013e6106a9565b606091505b50509050806107205760405162461bcd60e51b815260206004820152603a60248201527f416464726573733a20756e61626c6520746f2073656e642076616c75652c207260448201527f6563697069656e74206d6179206861766520726576657274656400000000000060648201526084016102a8565b505050565b604080516001600160a01b03848116602483015260448083018590528351808403909101815260649092018352602080830180516001600160e01b031663a9059cbb60e01b17905283518085019094528084527f5361666545524332303a206c6f772d6c6576656c2063616c6c206661696c656490840152610720928692916000916107b5918516908490610832565b80519091501561072057808060200190518101906107d39190610963565b6107205760405162461bcd60e51b815260206004820152602a60248201527f5361666545524332303a204552433230206f7065726174696f6e20646964206e6044820152691bdd081cdd58d8d9595960b21b60648201526084016102a8565b60606105fd8484600085856001600160a01b0385163b6108945760405162461bcd60e51b815260206004820152601d60248201527f416464726573733a2063616c6c20746f206e6f6e2d636f6e747261637400000060448201526064016102a8565b600080866001600160a01b031685876040516108b091906109f0565b60006040518083038185875af1925050503d80600081146108ed576040519150601f19603f3d011682016040523d82523d6000602084013e6108f2565b606091505b509150915061090282828661090d565b979650505050505050565b6060831561091c575081610600565b82511561092c5782518084602001fd5b8160405162461bcd60e51b81526004016102a89190610a0c565b60006020828403121561095857600080fd5b813561060081610b9c565b60006020828403121561097557600080fd5b8151801515811461060057600080fd5b6000806040838503121561099857600080fd5b82356109a381610b9c565b915060208301356109b381610b9c565b809150509250929050565b6000602082840312156109d057600080fd5b5035919050565b6000602082840312156109e957600080fd5b5051919050565b60008251610a02818460208701610b40565b9190910192915050565b6020815260008251806020840152610a2b816040850160208701610b40565b601f01601f19169190910160400192915050565b60208082526026908201527f5061796d656e7453706c69747465723a206163636f756e7420686173206e6f2060408201526573686172657360d01b606082015260800190565b6020808252602b908201527f5061796d656e7453706c69747465723a206163636f756e74206973206e6f742060408201526a191d59481c185e5b595b9d60aa1b606082015260800190565b60008219821115610ae357610ae3610b70565b500190565b600082610b0557634e487b7160e01b600052601260045260246000fd5b500490565b6000816000190483118215151615610b2457610b24610b70565b500290565b600082821015610b3b57610b3b610b70565b500390565b60005b83811015610b5b578181015183820152602001610b43565b83811115610b6a576000848401525b50505050565b634e487b7160e01b600052601160045260246000fd5b634e487b7160e01b600052603260045260246000fd5b6001600160a01b0381168114610bb157600080fd5b5056fea264697066735822122018280a757094152507ce9d127c9f0b851ac8fe2b4b948b731d381d07db6d1a7864736f6c63430008070033",
  "immutableReferences": {},
  "source": "// SPDX-License-Identifier: MIT\npragma solidity ^0.8.0;\n\nimport \"@openzeppelin/contracts/finance/PaymentSplitter.sol\";\n\ncontract Payments is PaymentSplitter {\n    \n    address[] private contributors = [\n        0x1BEb6235e160B4007b01E74483De4FBE4A10E233,\n        0x44DAe7210064C7AED59FE174326fA8cf34eFcd0f,\n        0x1773b544f3EA46CD1D4CC6aACa8e5de337e26889\n    ];\n\n    uint256[] private royalties = [\n        46,\n        46,\n        14\n    ];\n    \n    constructor () PaymentSplitter(contributors, royalties) payable {}\n}\n",
  "sourcePath": "/Applications/MAMP/htdocs/oxmose-mint/contracts/Payments.sol",
  "compiler": {
    "name": "solc",
    "version": "0.8.7+commit.e28d00a7.Emscripten.clang"
  },
  "schemaVersion": "3.4.4",
  "updatedAt": "2022-02-13T17:58:03.702Z",
  "networkType": "ethereum",
  "devdoc": {
    "kind": "dev",
    "methods": {
      "payee(uint256)": {
        "details": "Getter for the address of the payee number `index`."
      },
      "release(address)": {
        "details": "Triggers a transfer to `account` of the amount of Ether they are owed, according to their percentage of the total shares and their previous withdrawals."
      },
      "release(address,address)": {
        "details": "Triggers a transfer to `account` of the amount of `token` tokens they are owed, according to their percentage of the total shares and their previous withdrawals. `token` must be the address of an IERC20 contract."
      },
      "released(address)": {
        "details": "Getter for the amount of Ether already released to a payee."
      },
      "released(address,address)": {
        "details": "Getter for the amount of `token` tokens already released to a payee. `token` should be the address of an IERC20 contract."
      },
      "shares(address)": {
        "details": "Getter for the amount of shares held by an account."
      },
      "totalReleased()": {
        "details": "Getter for the total amount of Ether already released."
      },
      "totalReleased(address)": {
        "details": "Getter for the total amount of `token` already released. `token` should be the address of an IERC20 contract."
      },
      "totalShares()": {
        "details": "Getter for the total shares held by payees."
      }
    },
    "version": 1
  },
  "userdoc": {
    "kind": "user",
    "methods": {},
    "version": 1
  }
}