{
  "contractName": "RoyaltiesV2Impl",
  "abi": [
    {
      "anonymous": false,
      "inputs": [
        {
          "indexed": false,
          "internalType": "uint256",
          "name": "tokenId",
          "type": "uint256"
        },
        {
          "components": [
            {
              "internalType": "address payable",
              "name": "account",
              "type": "address"
            },
            {
              "internalType": "uint96",
              "name": "value",
              "type": "uint96"
            }
          ],
          "indexed": false,
          "internalType": "struct LibPart.Part[]",
          "name": "royalties",
          "type": "tuple[]"
        }
      ],
      "name": "RoyaltiesSet",
      "type": "event"
    },
    {
      "inputs": [
        {
          "internalType": "uint256",
          "name": "",
          "type": "uint256"
        },
        {
          "internalType": "uint256",
          "name": "",
          "type": "uint256"
        }
      ],
      "name": "royalties",
      "outputs": [
        {
          "internalType": "address payable",
          "name": "account",
          "type": "address"
        },
        {
          "internalType": "uint96",
          "name": "value",
          "type": "uint96"
        }
      ],
      "stateMutability": "view",
      "type": "function"
    },
    {
      "inputs": [
        {
          "internalType": "uint256",
          "name": "id",
          "type": "uint256"
        }
      ],
      "name": "getRaribleV2Royalties",
      "outputs": [
        {
          "components": [
            {
              "internalType": "address payable",
              "name": "account",
              "type": "address"
            },
            {
              "internalType": "uint96",
              "name": "value",
              "type": "uint96"
            }
          ],
          "internalType": "struct LibPart.Part[]",
          "name": "",
          "type": "tuple[]"
        }
      ],
      "stateMutability": "view",
      "type": "function"
    }
  ],
  "bytecode": "0x608060405234801561001057600080fd5b5061023b806100206000396000f3fe608060405234801561001057600080fd5b50600436106100365760003560e01c80638924af741461003b578063cad96cca1461007a575b600080fd5b61004e610049366004610182565b61009a565b604080516001600160a01b0390931683526001600160601b039091166020830152015b60405180910390f35b61008d610088366004610169565b6100e3565b60405161007191906101a4565b600060205281600052604060002081815481106100b657600080fd5b6000918252602090912001546001600160a01b0381169250600160a01b90046001600160601b0316905082565b600081815260208181526040808320805482518185028101850190935280835260609492939192909184015b8282101561015e57600084815260209081902060408051808201909152908401546001600160a01b0381168252600160a01b90046001600160601b03168183015282526001909201910161010f565b505050509050919050565b60006020828403121561017b57600080fd5b5035919050565b6000806040838503121561019557600080fd5b50508035926020909101359150565b602080825282518282018190526000919060409081850190868401855b828110156101f857815180516001600160a01b031685528601516001600160601b03168685015292840192908501906001016101c1565b509197965050505050505056fea2646970667358221220a996218a071fc3061d7c75f1603107ec0a6305a17cf5b8568c1cd8cfafe25a5164736f6c63430008070033",
  "immutableReferences": {},
  "source": "// SPDX-License-Identifier: MIT\n\npragma solidity ^0.8.0;\n\nimport \"./AbstractRoyalties.sol\";\nimport \"../RoyaltiesV2.sol\";\n\ncontract RoyaltiesV2Impl is AbstractRoyalties, RoyaltiesV2 {\n    function getRaribleV2Royalties(uint256 id) override external view returns (LibPart.Part[] memory) {\n        return royalties[id];\n    }\n\n    function _onRoyaltiesSet(uint256 _id, LibPart.Part[] memory _royalties) override internal {\n        emit RoyaltiesSet(_id, _royalties);\n    }\n}\n",
  "sourcePath": "/Applications/MAMP/htdocs/oxmose-mint/contracts/@rarible/royalties/contracts/impl/RoyaltiesV2Impl.sol",
  "compiler": {
    "name": "solc",
    "version": "0.8.7+commit.e28d00a7.Emscripten.clang"
  },
  "schemaVersion": "3.4.4",
  "updatedAt": "2022-02-13T15:01:00.195Z",
  "devdoc": {
    "kind": "dev",
    "methods": {},
    "version": 1
  },
  "userdoc": {
    "kind": "user",
    "methods": {},
    "version": 1
  }
}