{
  "contractName": "Whitelist",
  "abi": [
    {
      "inputs": [
        {
          "internalType": "bytes32",
          "name": "_merkleRoot",
          "type": "bytes32"
        }
      ],
      "stateMutability": "nonpayable",
      "type": "constructor"
    },
    {
      "inputs": [],
      "name": "merkleRoot",
      "outputs": [
        {
          "internalType": "bytes32",
          "name": "",
          "type": "bytes32"
        }
      ],
      "stateMutability": "view",
      "type": "function"
    },
    {
      "inputs": [
        {
          "internalType": "address",
          "name": "account",
          "type": "address"
        },
        {
          "internalType": "bytes32[]",
          "name": "proof",
          "type": "bytes32[]"
        },
        {
          "internalType": "uint256[]",
          "name": "positions",
          "type": "uint256[]"
        }
      ],
      "name": "isWhitelisted",
      "outputs": [
        {
          "internalType": "bool",
          "name": "",
          "type": "bool"
        }
      ],
      "stateMutability": "view",
      "type": "function"
    }
  ],
  "bytecode": "0x60a060405234801561001057600080fd5b5060405161047038038061047083398101604081905261002f91610037565b608052610050565b60006020828403121561004957600080fd5b5051919050565b6080516103ff61007160003960008181604001526101a501526103ff6000f3fe608060405234801561001057600080fd5b50600436106100365760003560e01c80632eb4a7ab1461003b57806388c73ebc14610075575b600080fd5b6100627f000000000000000000000000000000000000000000000000000000000000000081565b6040519081526020015b60405180910390f35b61008861008336600461023f565b610098565b604051901515815260200161006c565b6040516bffffffffffffffffffffffff19606085901b1660208201526000906100db906034016040516020818303038152906040528051906020012084846100e3565b949350505050565b600083815b84518110156101a25760008582815181106101055761010561039d565b602002602001015190508482815181106101215761012161039d565b60200260200101516001141561016257604080516020810185905290810182905260600160405160208183030381529060405280519060200120925061018f565b60408051602081018390529081018490526060016040516020818303038152906040528051906020012092505b508061019a81610374565b9150506100e8565b507f000000000000000000000000000000000000000000000000000000000000000014949350505050565b600082601f8301126101de57600080fd5b813560206101f36101ee83610350565b61031f565b80838252828201915082860187848660051b890101111561021357600080fd5b60005b8581101561023257813584529284019290840190600101610216565b5090979650505050505050565b60008060006060848603121561025457600080fd5b83356001600160a01b038116811461026b57600080fd5b925060208481013567ffffffffffffffff8082111561028957600080fd5b818701915087601f83011261029d57600080fd5b81356102ab6101ee82610350565b8082825285820191508585018b878560051b88010111156102cb57600080fd5b600095505b838610156102ee5780358352600195909501949186019186016102d0565b5096505050604087013592508083111561030757600080fd5b5050610315868287016101cd565b9150509250925092565b604051601f8201601f1916810167ffffffffffffffff81118282101715610348576103486103b3565b604052919050565b600067ffffffffffffffff82111561036a5761036a6103b3565b5060051b60200190565b600060001982141561039657634e487b7160e01b600052601160045260246000fd5b5060010190565b634e487b7160e01b600052603260045260246000fd5b634e487b7160e01b600052604160045260246000fdfea264697066735822122010c6bab352033d028caebc1ffb3e49e9d430fe2a7e54c30fda9bc2aa57cb279a64736f6c63430008070033",
  "immutableReferences": {
    "3433": [
      {
        "length": 32,
        "start": 64
      },
      {
        "length": 32,
        "start": 421
      }
    ]
  },
  "source": "// SPDX-License-Identifier: MIT\npragma solidity 0.8.7;\n\ncontract Whitelist {\n    /// root of merkle tree\n    bytes32 immutable public merkleRoot;\n\n    constructor(bytes32 _merkleRoot){\n        merkleRoot = _merkleRoot;\n    }\n\n    function isWhitelisted(\n        address account, \n        bytes32[] memory proof, \n        uint256[] memory positions\n    ) \n        public \n        view \n        returns(bool) \n    {\n        return verify(keccak256(abi.encodePacked(account)), proof, positions);\n    }\n\n    function verify(\n        bytes32 leaf,\n        bytes32[] memory proof,\n        uint256[] memory positions\n    )\n        internal\n        view\n        returns (bool)\n    {\n        bytes32 computedHash = leaf;\n\n        for (uint256 i = 0; i < proof.length; i++) {\n            bytes32 proofElement = proof[i];\n\n            if (positions[i] == 1) {\n                computedHash = keccak256(abi.encodePacked(computedHash, proofElement));\n            } else {\n                computedHash = keccak256(abi.encodePacked(proofElement, computedHash));\n            }\n        }\n\n        return computedHash == merkleRoot;\n    }\n            \n}",
  "sourcePath": "/Applications/MAMP/htdocs/oxmose-mint/contracts/Whitelist.sol",
  "compiler": {
    "name": "solc",
    "version": "0.8.7+commit.e28d00a7.Emscripten.clang"
  },
  "schemaVersion": "3.4.4",
  "updatedAt": "2022-02-12T02:25:25.142Z",
  "devdoc": {
    "kind": "dev",
    "methods": {},
    "version": 1
  },
  "userdoc": {
    "kind": "user",
    "methods": {
      "merkleRoot()": {
        "notice": "root of merkle tree"
      }
    },
    "version": 1
  }
}