{
  "contractName": "Oxmose",
  "abi": [
    {
      "inputs": [],
      "stateMutability": "nonpayable",
      "type": "constructor"
    },
    {
      "anonymous": false,
      "inputs": [
        {
          "indexed": true,
          "internalType": "address",
          "name": "owner",
          "type": "address"
        },
        {
          "indexed": true,
          "internalType": "address",
          "name": "approved",
          "type": "address"
        },
        {
          "indexed": true,
          "internalType": "uint256",
          "name": "tokenId",
          "type": "uint256"
        }
      ],
      "name": "Approval",
      "type": "event"
    },
    {
      "anonymous": false,
      "inputs": [
        {
          "indexed": true,
          "internalType": "address",
          "name": "owner",
          "type": "address"
        },
        {
          "indexed": true,
          "internalType": "address",
          "name": "operator",
          "type": "address"
        },
        {
          "indexed": false,
          "internalType": "bool",
          "name": "approved",
          "type": "bool"
        }
      ],
      "name": "ApprovalForAll",
      "type": "event"
    },
    {
      "anonymous": false,
      "inputs": [
        {
          "indexed": true,
          "internalType": "address",
          "name": "previousOwner",
          "type": "address"
        },
        {
          "indexed": true,
          "internalType": "address",
          "name": "newOwner",
          "type": "address"
        }
      ],
      "name": "OwnershipTransferred",
      "type": "event"
    },
    {
      "anonymous": false,
      "inputs": [
        {
          "indexed": false,
          "internalType": "uint256",
          "name": "tokenId",
          "type": "uint256"
        },
        {
          "components": [
            {
              "internalType": "address payable",
              "name": "account",
              "type": "address"
            },
            {
              "internalType": "uint96",
              "name": "value",
              "type": "uint96"
            }
          ],
          "indexed": false,
          "internalType": "struct LibPart.Part[]",
          "name": "royalties",
          "type": "tuple[]"
        }
      ],
      "name": "RoyaltiesSet",
      "type": "event"
    },
    {
      "anonymous": false,
      "inputs": [
        {
          "indexed": true,
          "internalType": "address",
          "name": "from",
          "type": "address"
        },
        {
          "indexed": true,
          "internalType": "address",
          "name": "to",
          "type": "address"
        },
        {
          "indexed": true,
          "internalType": "uint256",
          "name": "tokenId",
          "type": "uint256"
        }
      ],
      "name": "Transfer",
      "type": "event"
    },
    {
      "inputs": [],
      "name": "OXMOSE_AIRDROP_LIMIT",
      "outputs": [
        {
          "internalType": "uint256",
          "name": "",
          "type": "uint256"
        }
      ],
      "stateMutability": "view",
      "type": "function",
      "constant": true
    },
    {
      "inputs": [],
      "name": "OXMOSE_MAX_SUPPLY",
      "outputs": [
        {
          "internalType": "uint256",
          "name": "",
          "type": "uint256"
        }
      ],
      "stateMutability": "view",
      "type": "function",
      "constant": true
    },
    {
      "inputs": [],
      "name": "OXMOSE_PRICE",
      "outputs": [
        {
          "internalType": "uint256",
          "name": "",
          "type": "uint256"
        }
      ],
      "stateMutability": "view",
      "type": "function",
      "constant": true
    },
    {
      "inputs": [],
      "name": "ROYALTY_PERCENTAGE",
      "outputs": [
        {
          "internalType": "uint96",
          "name": "",
          "type": "uint96"
        }
      ],
      "stateMutability": "view",
      "type": "function",
      "constant": true
    },
    {
      "inputs": [],
      "name": "ROYALTY_RECIPIENT",
      "outputs": [
        {
          "internalType": "address",
          "name": "",
          "type": "address"
        }
      ],
      "stateMutability": "view",
      "type": "function",
      "constant": true
    },
    {
      "inputs": [
        {
          "internalType": "address",
          "name": "to",
          "type": "address"
        },
        {
          "internalType": "uint256",
          "name": "tokenId",
          "type": "uint256"
        }
      ],
      "name": "approve",
      "outputs": [],
      "stateMutability": "nonpayable",
      "type": "function"
    },
    {
      "inputs": [],
      "name": "arweaveHash",
      "outputs": [
        {
          "internalType": "string",
          "name": "",
          "type": "string"
        }
      ],
      "stateMutability": "view",
      "type": "function",
      "constant": true
    },
    {
      "inputs": [
        {
          "internalType": "address",
          "name": "owner",
          "type": "address"
        }
      ],
      "name": "balanceOf",
      "outputs": [
        {
          "internalType": "uint256",
          "name": "",
          "type": "uint256"
        }
      ],
      "stateMutability": "view",
      "type": "function",
      "constant": true
    },
    {
      "inputs": [],
      "name": "baseURI",
      "outputs": [
        {
          "internalType": "string",
          "name": "",
          "type": "string"
        }
      ],
      "stateMutability": "view",
      "type": "function",
      "constant": true
    },
    {
      "inputs": [],
      "name": "contractSealed",
      "outputs": [
        {
          "internalType": "bool",
          "name": "",
          "type": "bool"
        }
      ],
      "stateMutability": "view",
      "type": "function",
      "constant": true
    },
    {
      "inputs": [
        {
          "internalType": "uint256",
          "name": "tokenId",
          "type": "uint256"
        }
      ],
      "name": "getApproved",
      "outputs": [
        {
          "internalType": "address",
          "name": "",
          "type": "address"
        }
      ],
      "stateMutability": "view",
      "type": "function",
      "constant": true
    },
    {
      "inputs": [
        {
          "internalType": "uint256",
          "name": "id",
          "type": "uint256"
        }
      ],
      "name": "getRaribleV2Royalties",
      "outputs": [
        {
          "components": [
            {
              "internalType": "address payable",
              "name": "account",
              "type": "address"
            },
            {
              "internalType": "uint96",
              "name": "value",
              "type": "uint96"
            }
          ],
          "internalType": "struct LibPart.Part[]",
          "name": "",
          "type": "tuple[]"
        }
      ],
      "stateMutability": "view",
      "type": "function",
      "constant": true
    },
    {
      "inputs": [
        {
          "internalType": "address",
          "name": "owner",
          "type": "address"
        },
        {
          "internalType": "address",
          "name": "operator",
          "type": "address"
        }
      ],
      "name": "isApprovedForAll",
      "outputs": [
        {
          "internalType": "bool",
          "name": "",
          "type": "bool"
        }
      ],
      "stateMutability": "view",
      "type": "function",
      "constant": true
    },
    {
      "inputs": [
        {
          "internalType": "address",
          "name": "account",
          "type": "address"
        },
        {
          "internalType": "bytes32[]",
          "name": "proof",
          "type": "bytes32[]"
        },
        {
          "internalType": "uint256[]",
          "name": "positions",
          "type": "uint256[]"
        }
      ],
      "name": "isWhitelisted",
      "outputs": [
        {
          "internalType": "bool",
          "name": "",
          "type": "bool"
        }
      ],
      "stateMutability": "view",
      "type": "function",
      "constant": true
    },
    {
      "inputs": [],
      "name": "jsonAttributesIPFSHash",
      "outputs": [
        {
          "internalType": "string",
          "name": "",
          "type": "string"
        }
      ],
      "stateMutability": "view",
      "type": "function",
      "constant": true
    },
    {
      "inputs": [],
      "name": "jsonAttributesProvenance",
      "outputs": [
        {
          "internalType": "string",
          "name": "",
          "type": "string"
        }
      ],
      "stateMutability": "view",
      "type": "function",
      "constant": true
    },
    {
      "inputs": [],
      "name": "merkleRoot",
      "outputs": [
        {
          "internalType": "bytes32",
          "name": "",
          "type": "bytes32"
        }
      ],
      "stateMutability": "view",
      "type": "function",
      "constant": true
    },
    {
      "inputs": [],
      "name": "name",
      "outputs": [
        {
          "internalType": "string",
          "name": "",
          "type": "string"
        }
      ],
      "stateMutability": "view",
      "type": "function",
      "constant": true
    },
    {
      "inputs": [],
      "name": "nextOwnerToExplicitlySet",
      "outputs": [
        {
          "internalType": "uint256",
          "name": "",
          "type": "uint256"
        }
      ],
      "stateMutability": "view",
      "type": "function",
      "constant": true
    },
    {
      "inputs": [],
      "name": "owner",
      "outputs": [
        {
          "internalType": "address",
          "name": "",
          "type": "address"
        }
      ],
      "stateMutability": "view",
      "type": "function",
      "constant": true
    },
    {
      "inputs": [
        {
          "internalType": "uint256",
          "name": "tokenId",
          "type": "uint256"
        }
      ],
      "name": "ownerOf",
      "outputs": [
        {
          "internalType": "address",
          "name": "",
          "type": "address"
        }
      ],
      "stateMutability": "view",
      "type": "function",
      "constant": true
    },
    {
      "inputs": [],
      "name": "renounceOwnership",
      "outputs": [],
      "stateMutability": "nonpayable",
      "type": "function"
    },
    {
      "inputs": [
        {
          "internalType": "uint256",
          "name": "",
          "type": "uint256"
        },
        {
          "internalType": "uint256",
          "name": "",
          "type": "uint256"
        }
      ],
      "name": "royalties",
      "outputs": [
        {
          "internalType": "address payable",
          "name": "account",
          "type": "address"
        },
        {
          "internalType": "uint96",
          "name": "value",
          "type": "uint96"
        }
      ],
      "stateMutability": "view",
      "type": "function",
      "constant": true
    },
    {
      "inputs": [
        {
          "internalType": "uint256",
          "name": "",
          "type": "uint256"
        },
        {
          "internalType": "uint256",
          "name": "value",
          "type": "uint256"
        }
      ],
      "name": "royaltyInfo",
      "outputs": [
        {
          "internalType": "address",
          "name": "receiver",
          "type": "address"
        },
        {
          "internalType": "uint256",
          "name": "royaltyAmount",
          "type": "uint256"
        }
      ],
      "stateMutability": "view",
      "type": "function",
      "constant": true
    },
    {
      "inputs": [
        {
          "internalType": "address",
          "name": "from",
          "type": "address"
        },
        {
          "internalType": "address",
          "name": "to",
          "type": "address"
        },
        {
          "internalType": "uint256",
          "name": "tokenId",
          "type": "uint256"
        }
      ],
      "name": "safeTransferFrom",
      "outputs": [],
      "stateMutability": "nonpayable",
      "type": "function"
    },
    {
      "inputs": [
        {
          "internalType": "address",
          "name": "from",
          "type": "address"
        },
        {
          "internalType": "address",
          "name": "to",
          "type": "address"
        },
        {
          "internalType": "uint256",
          "name": "tokenId",
          "type": "uint256"
        },
        {
          "internalType": "bytes",
          "name": "_data",
          "type": "bytes"
        }
      ],
      "name": "safeTransferFrom",
      "outputs": [],
      "stateMutability": "nonpayable",
      "type": "function"
    },
    {
      "inputs": [],
      "name": "saleActive",
      "outputs": [
        {
          "internalType": "bool",
          "name": "",
          "type": "bool"
        }
      ],
      "stateMutability": "view",
      "type": "function",
      "constant": true
    },
    {
      "inputs": [
        {
          "internalType": "address",
          "name": "operator",
          "type": "address"
        },
        {
          "internalType": "bool",
          "name": "approved",
          "type": "bool"
        }
      ],
      "name": "setApprovalForAll",
      "outputs": [],
      "stateMutability": "nonpayable",
      "type": "function"
    },
    {
      "inputs": [],
      "name": "symbol",
      "outputs": [
        {
          "internalType": "string",
          "name": "",
          "type": "string"
        }
      ],
      "stateMutability": "view",
      "type": "function",
      "constant": true
    },
    {
      "inputs": [
        {
          "internalType": "uint256",
          "name": "index",
          "type": "uint256"
        }
      ],
      "name": "tokenByIndex",
      "outputs": [
        {
          "internalType": "uint256",
          "name": "",
          "type": "uint256"
        }
      ],
      "stateMutability": "view",
      "type": "function",
      "constant": true
    },
    {
      "inputs": [
        {
          "internalType": "address",
          "name": "owner",
          "type": "address"
        },
        {
          "internalType": "uint256",
          "name": "index",
          "type": "uint256"
        }
      ],
      "name": "tokenOfOwnerByIndex",
      "outputs": [
        {
          "internalType": "uint256",
          "name": "",
          "type": "uint256"
        }
      ],
      "stateMutability": "view",
      "type": "function",
      "constant": true
    },
    {
      "inputs": [],
      "name": "totalSupply",
      "outputs": [
        {
          "internalType": "uint256",
          "name": "",
          "type": "uint256"
        }
      ],
      "stateMutability": "view",
      "type": "function",
      "constant": true
    },
    {
      "inputs": [
        {
          "internalType": "address",
          "name": "from",
          "type": "address"
        },
        {
          "internalType": "address",
          "name": "to",
          "type": "address"
        },
        {
          "internalType": "uint256",
          "name": "tokenId",
          "type": "uint256"
        }
      ],
      "name": "transferFrom",
      "outputs": [],
      "stateMutability": "nonpayable",
      "type": "function"
    },
    {
      "inputs": [
        {
          "internalType": "address",
          "name": "newOwner",
          "type": "address"
        }
      ],
      "name": "transferOwnership",
      "outputs": [],
      "stateMutability": "nonpayable",
      "type": "function"
    },
    {
      "inputs": [],
      "name": "whitelistActive",
      "outputs": [
        {
          "internalType": "bool",
          "name": "",
          "type": "bool"
        }
      ],
      "stateMutability": "view",
      "type": "function",
      "constant": true
    },
    {
      "inputs": [],
      "name": "whitelistMerkle",
      "outputs": [
        {
          "internalType": "bytes32",
          "name": "",
          "type": "bytes32"
        }
      ],
      "stateMutability": "view",
      "type": "function",
      "constant": true
    },
    {
      "inputs": [
        {
          "internalType": "uint256",
          "name": "tokenId",
          "type": "uint256"
        }
      ],
      "name": "tokenURI",
      "outputs": [
        {
          "internalType": "string",
          "name": "",
          "type": "string"
        }
      ],
      "stateMutability": "view",
      "type": "function",
      "constant": true
    },
    {
      "inputs": [],
      "name": "sealContract",
      "outputs": [],
      "stateMutability": "nonpayable",
      "type": "function"
    },
    {
      "inputs": [
        {
          "internalType": "string",
          "name": "_newUri",
          "type": "string"
        }
      ],
      "name": "setBaseURI",
      "outputs": [],
      "stateMutability": "nonpayable",
      "type": "function"
    },
    {
      "inputs": [
        {
          "internalType": "string",
          "name": "_hash",
          "type": "string"
        }
      ],
      "name": "setJsonAttributesIPFSHash",
      "outputs": [],
      "stateMutability": "nonpayable",
      "type": "function"
    },
    {
      "inputs": [
        {
          "internalType": "string",
          "name": "_newUri",
          "type": "string"
        },
        {
          "internalType": "string",
          "name": "_hash",
          "type": "string"
        }
      ],
      "name": "reveal",
      "outputs": [],
      "stateMutability": "nonpayable",
      "type": "function"
    },
    {
      "inputs": [
        {
          "internalType": "uint256",
          "name": "tokenId",
          "type": "uint256"
        }
      ],
      "name": "getOxmoseAPIURI",
      "outputs": [
        {
          "internalType": "string",
          "name": "",
          "type": "string"
        }
      ],
      "stateMutability": "view",
      "type": "function",
      "constant": true
    },
    {
      "inputs": [
        {
          "internalType": "uint256",
          "name": "tokenId",
          "type": "uint256"
        }
      ],
      "name": "getArweaveURI",
      "outputs": [
        {
          "internalType": "string",
          "name": "",
          "type": "string"
        }
      ],
      "stateMutability": "view",
      "type": "function",
      "constant": true
    },
    {
      "inputs": [
        {
          "internalType": "string",
          "name": "_hash",
          "type": "string"
        }
      ],
      "name": "setArweaveHash",
      "outputs": [],
      "stateMutability": "nonpayable",
      "type": "function"
    },
    {
      "inputs": [],
      "name": "toggleWhitelist",
      "outputs": [],
      "stateMutability": "nonpayable",
      "type": "function"
    },
    {
      "inputs": [],
      "name": "toggleSales",
      "outputs": [],
      "stateMutability": "nonpayable",
      "type": "function"
    },
    {
      "inputs": [
        {
          "internalType": "uint256",
          "name": "quantity",
          "type": "uint256"
        },
        {
          "internalType": "bytes32[]",
          "name": "proof",
          "type": "bytes32[]"
        },
        {
          "internalType": "uint256[]",
          "name": "positions",
          "type": "uint256[]"
        }
      ],
      "name": "mint",
      "outputs": [],
      "stateMutability": "payable",
      "type": "function",
      "payable": true
    },
    {
      "inputs": [
        {
          "internalType": "address",
          "name": "receiver",
          "type": "address"
        },
        {
          "internalType": "uint256",
          "name": "quantity",
          "type": "uint256"
        }
      ],
      "name": "airdropOxmose",
      "outputs": [],
      "stateMutability": "nonpayable",
      "type": "function"
    },
    {
      "inputs": [
        {
          "internalType": "address",
          "name": "owner",
          "type": "address"
        }
      ],
      "name": "numberMinted",
      "outputs": [
        {
          "internalType": "uint256",
          "name": "",
          "type": "uint256"
        }
      ],
      "stateMutability": "view",
      "type": "function",
      "constant": true
    },
    {
      "inputs": [
        {
          "internalType": "uint256",
          "name": "tokenId",
          "type": "uint256"
        }
      ],
      "name": "getOwnershipData",
      "outputs": [
        {
          "components": [
            {
              "internalType": "address",
              "name": "addr",
              "type": "address"
            },
            {
              "internalType": "uint64",
              "name": "startTimestamp",
              "type": "uint64"
            }
          ],
          "internalType": "struct ERC721A.TokenOwnership",
          "name": "",
          "type": "tuple"
        }
      ],
      "stateMutability": "view",
      "type": "function",
      "constant": true
    },
    {
      "inputs": [
        {
          "internalType": "bytes4",
          "name": "interfaceId",
          "type": "bytes4"
        }
      ],
      "name": "supportsInterface",
      "outputs": [
        {
          "internalType": "bool",
          "name": "",
          "type": "bool"
        }
      ],
      "stateMutability": "view",
      "type": "function",
      "constant": true
    },
    {
      "inputs": [],
      "name": "contractURI",
      "outputs": [
        {
          "internalType": "string",
          "name": "",
          "type": "string"
        }
      ],
      "stateMutability": "view",
      "type": "function",
      "constant": true
    }
  ],
  "bytecode": "0x60016000908155600755610140604052604360c081815290620039e860e03980516200003491600b91602090910190620002b0565b50604051806060016040528060408152602001620039a86040913980516200006591600d91602090910190620002b0565b507fc8645472e961de1db838b309d8c7beeaed3e9386a135470809b24d5e238d4215600e556010805462ffffff1916610100179055348015620000a757600080fd5b50600e546040518060400160405280600f81526020016e4f786d6f736520536561736f6e203160881b815250604051806040016040528060048152602001634f584f3160e01b815250600a60008111620001585760405162461bcd60e51b815260206004820152602760248201527f455243373231413a206d61782062617463682073697a65206d757374206265206044820152666e6f6e7a65726f60c81b60648201526084015b60405180910390fd5b82516200016d906001906020860190620002b0565b50815162000183906002906020850190620002b0565b506080525062000195905033620001c0565b60a052620001ba73286ff2c8c944085ca876ba04026c4f44ae1fc7fb6102ee62000212565b62000393565b600980546001600160a01b038381166001600160a01b0319831681179093556040519116919082907f8be0079c531659141344cd1fd0a4f28419497f9722a3daafe3b4186f6b6457e090600090a35050565b612710811115620002665760405162461bcd60e51b815260206004820152601a60248201527f45524332393831526f79616c746965733a20546f6f206869676800000000000060448201526064016200014f565b604080518082019091526001600160a01b0390921680835262ffffff909116602090920182905260088054600160a01b9093026001600160b81b0319909316909117919091179055565b828054620002be9062000356565b90600052602060002090601f016020900481019282620002e257600085556200032d565b82601f10620002fd57805160ff19168380011785556200032d565b828001600101855582156200032d579182015b828111156200032d57825182559160200191906001019062000310565b506200033b9291506200033f565b5090565b5b808211156200033b576000815560010162000340565b600181811c908216806200036b57607f821691505b602082108114156200038d57634e487b7160e01b600052602260045260246000fd5b50919050565b60805160a0516135da620003ce6000396000818161046401526122b00152600081816120750152818161209f015261283b01526135da6000f3fe6080604052600436106102ff5760003560e01c80637e4090b511610190578063b88d4fde116100dc578063d7224ba011610095578063e8a3d4851161006f578063e8a3d48514610938578063e985e9c51461094d578063f2fde38b14610996578063f6c4ef49146109b657600080fd5b8063d7224ba0146108ed578063dbd30ae014610903578063dc33e6811461091857600080fd5b8063b88d4fde14610839578063bdeb0f3314610859578063bedf0b161461086e578063c87b56dd1461088a578063cad96cca146108aa578063cd880553146108d757600080fd5b80639231ab2a11610149578063977bff0911610123578063977bff09146107c4578063a22cb465146107e4578063ae9740c814610804578063b65016371461081957600080fd5b80639231ab2a1461074c57806395ba3e441461079957806395d89b41146107af57600080fd5b80637e4090b51461067d5780638433d9c8146106925780638612c6a4146106a757806388c73ebc146106c75780638924af74146106e75780638da5cb5b1461072e57600080fd5b8063509d12351161024f5780636352211e116102085780636c0360eb116101e25780636c0360eb1461061e57806370a0823114610633578063715018a6146106535780637e15144b1461066857600080fd5b80636352211e146105cf57806368428a1b146105ef57806368bd580e1461060957600080fd5b8063509d12351461051457806350d630501461052757806350fe03f61461054757806355f804b31461056f578063596a74291461058f5780635ba1b2c7146105af57600080fd5b806323b872dd116102bc5780632f745c59116102965780632f745c591461048657806342842e0e146104a6578063463b08db146104c65780634f6ccce7146104f457600080fd5b806323b872dd146103f35780632a55205a146104135780632eb4a7ab1461045257600080fd5b806301ffc9a71461030457806302ce58131461033957806306fdde0314610358578063081812fc1461037a578063095ea7b3146103b257806318160ddd146103d4575b600080fd5b34801561031057600080fd5b5061032461031f366004612eb8565b6109d6565b60405190151581526020015b60405180910390f35b34801561034557600080fd5b5060105461032490610100900460ff1681565b34801561036457600080fd5b5061036d610a08565b604051610330919061326a565b34801561038657600080fd5b5061039a610395366004612f7f565b610a9a565b6040516001600160a01b039091168152602001610330565b3480156103be57600080fd5b506103d26103cd366004612e8e565b610b2a565b005b3480156103e057600080fd5b506000545b604051908152602001610330565b3480156103ff57600080fd5b506103d261040e366004612cca565b610c42565b34801561041f57600080fd5b5061043361042e366004613011565b610c4d565b604080516001600160a01b039093168352602083019190915201610330565b34801561045e57600080fd5b506103e57f000000000000000000000000000000000000000000000000000000000000000081565b34801561049257600080fd5b506103e56104a1366004612e8e565b610ca2565b3480156104b257600080fd5b506103d26104c1366004612cca565b610e0f565b3480156104d257600080fd5b506104dc6102ee81565b6040516001600160601b039091168152602001610330565b34801561050057600080fd5b506103e561050f366004612f7f565b610e2a565b6103d2610522366004612f98565b610e8c565b34801561053357600080fd5b506103d2610542366004612ef2565b61123d565b34801561055357600080fd5b5061039a73286ff2c8c944085ca876ba04026c4f44ae1fc7fb81565b34801561057b57600080fd5b506103d261058a366004612ef2565b6112c9565b34801561059b57600080fd5b506103d26105aa366004612e8e565b61132f565b3480156105bb57600080fd5b506103d26105ca366004612f26565b6113be565b3480156105db57600080fd5b5061039a6105ea366004612f7f565b6113fa565b3480156105fb57600080fd5b506010546103249060ff1681565b34801561061557600080fd5b506103d261140c565b34801561062a57600080fd5b5061036d611472565b34801561063f57600080fd5b506103e561064e366004612c7c565b611500565b34801561065f57600080fd5b506103d2611591565b34801561067457600080fd5b506103d26115c7565b34801561068957600080fd5b5061036d61160e565b34801561069e57600080fd5b506103e5601481565b3480156106b357600080fd5b506103d26106c2366004612ef2565b61161b565b3480156106d357600080fd5b506103246106e2366004612d81565b611681565b3480156106f357600080fd5b50610707610702366004613011565b6116cc565b604080516001600160a01b0390931683526001600160601b03909116602083015201610330565b34801561073a57600080fd5b506009546001600160a01b031661039a565b34801561075857600080fd5b5061076c610767366004612f7f565b611715565b6040805182516001600160a01b031681526020928301516001600160401b03169281019290925201610330565b3480156107a557600080fd5b506103e5610fa081565b3480156107bb57600080fd5b5061036d611732565b3480156107d057600080fd5b5061036d6107df366004612f7f565b611741565b3480156107f057600080fd5b506103d26107ff366004612e52565b611772565b34801561081057600080fd5b5061036d611837565b34801561082557600080fd5b506010546103249062010000900460ff1681565b34801561084557600080fd5b506103d2610854366004612d06565b611844565b34801561086557600080fd5b5061036d61187d565b34801561087a57600080fd5b506103e5670429d069189e000081565b34801561089657600080fd5b5061036d6108a5366004612f7f565b61188a565b3480156108b657600080fd5b506108ca6108c5366004612f7f565b611935565b6040516103309190613257565b3480156108e357600080fd5b506103e5600e5481565b3480156108f957600080fd5b506103e560075481565b34801561090f57600080fd5b506103d26119c4565b34801561092457600080fd5b506103e5610933366004612c7c565b611a02565b34801561094457600080fd5b5061036d611a0d565b34801561095957600080fd5b50610324610968366004612c97565b6001600160a01b03918216600090815260066020908152604080832093909416825291909152205460ff1690565b3480156109a257600080fd5b506103d26109b1366004612c7c565b611a2d565b3480156109c257600080fd5b5061036d6109d1366004612f7f565b611ac8565b60006001600160e01b03198216631131d2f360e21b14156109f957506001919050565b610a0282611b24565b92915050565b606060018054610a1790613489565b80601f0160208091040260200160405190810160405280929190818152602001828054610a4390613489565b8015610a905780601f10610a6557610100808354040283529160200191610a90565b820191906000526020600020905b815481529060010190602001808311610a7357829003601f168201915b5050505050905090565b6000610aa7826000541190565b610b0e5760405162461bcd60e51b815260206004820152602d60248201527f455243373231413a20617070726f76656420717565727920666f72206e6f6e6560448201526c3c34b9ba32b73a103a37b5b2b760991b60648201526084015b60405180910390fd5b506000908152600560205260409020546001600160a01b031690565b6000610b35826113fa565b9050806001600160a01b0316836001600160a01b03161415610ba45760405162461bcd60e51b815260206004820152602260248201527f455243373231413a20617070726f76616c20746f2063757272656e74206f776e60448201526132b960f11b6064820152608401610b05565b336001600160a01b0382161480610bc05750610bc08133610968565b610c325760405162461bcd60e51b815260206004820152603960248201527f455243373231413a20617070726f76652063616c6c6572206973206e6f74206f60448201527f776e6572206e6f7220617070726f76656420666f7220616c6c000000000000006064820152608401610b05565b610c3d838383611b49565b505050565b610c3d838383611ba5565b604080518082019091526008546001600160a01b038116808352600160a01b90910462ffffff1660208301819052909160009161271090610c8e90866133e8565b610c9891906133d4565b9150509250929050565b6000610cad83611500565b8210610d065760405162461bcd60e51b815260206004820152602260248201527f455243373231413a206f776e657220696e646578206f7574206f6620626f756e604482015261647360f01b6064820152608401610b05565b600080549080805b83811015610daf576000818152600360209081526040918290208251808401909352546001600160a01b038116808452600160a01b9091046001600160401b03169183019190915215610d6057805192505b876001600160a01b0316836001600160a01b03161415610d9c5786841415610d8e57509350610a0292505050565b83610d98816134c4565b9450505b5080610da7816134c4565b915050610d0e565b5060405162461bcd60e51b815260206004820152602e60248201527f455243373231413a20756e61626c6520746f2067657420746f6b656e206f662060448201526d0deeedccae440c4f240d2dcc8caf60931b6064820152608401610b05565b610c3d83838360405180602001604052806000815250611844565b600080548210610e885760405162461bcd60e51b815260206004820152602360248201527f455243373231413a20676c6f62616c20696e646578206f7574206f6620626f756044820152626e647360e81b6064820152608401610b05565b5090565b323314610edb5760405162461bcd60e51b815260206004820152601e60248201527f5468652063616c6c657220697320616e6f7468657220636f6e747261637400006044820152606401610b05565b60105460ff16610f2d5760405162461bcd60e51b815260206004820152601760248201527f53616c65206973206e6f742073746172746564207965740000000000000000006044820152606401610b05565b610f3f85670429d069189e00006133e8565b341015610f7c5760405162461bcd60e51b815260206004820152600b60248201526a57726f6e6720707269636560a81b6044820152606401610b05565b6005610f8733611a02565b1115610fd55760405162461bcd60e51b815260206004820152601a60248201527f596f752063616e2774206d696e74206d6f7265204f786d6f73650000000000006044820152606401610b05565b610fe26014610fa061342f565b85610fec60005490565b610ff691906133bc565b111561103a5760405162461bcd60e51b8152602060048201526013602482015272139bc81b5bdc994813de1b5bdcd9481b19599d606a1b6044820152606401610b05565b601054610100900460ff16156110fb576110b8338585808060200260200160405190810160405280939291908181526020018383602002808284376000920191909152505060408051602080890282810182019093528882529093508892508791829185019084908082843760009201919091525061168192505050565b6110fb5760405162461bcd60e51b8152602060048201526014602482015273139bdd081bdb881d1a19481dda1a5d195b1a5cdd60621b6044820152606401610b05565b73d424a453b92b05aed5195f9221b86c20b19516cb6108fc60646111203460316133e8565b61112a91906133d4565b6040518115909202916000818181858888f19350505050158015611152573d6000803e3d6000fd5b50731beb6235e160b4007b01e74483de4fbe4a10e2336108fc60646111783460316133e8565b61118291906133d4565b6040518115909202916000818181858888f193505050501580156111aa573d6000803e3d6000fd5b50731773b544f3ea46cd1d4cc6aaca8e5de337e268896108fc60646111d03460026133e8565b6111da91906133d4565b6040518115909202916000818181858888f19350505050158015611202573d6000803e3d6000fd5b5061122c61120f60005490565b73286ff2c8c944085ca876ba04026c4f44ae1fc7fb6102ee611f2b565b6112363386611fd9565b5050505050565b6009546001600160a01b031633146112675760405162461bcd60e51b8152600401610b05906132a6565b600f805461127490613489565b151590506112b25760405162461bcd60e51b815260206004820152600b60248201526a105b1c9958591e481cd95d60aa1b6044820152606401610b05565b80516112c590600f906020840190612a95565b5050565b6009546001600160a01b031633146112f35760405162461bcd60e51b8152600401610b05906132a6565b60105462010000900460ff161561131c5760405162461bcd60e51b8152600401610b059061327d565b80516112c590600b906020840190612a95565b6009546001600160a01b031633146113595760405162461bcd60e51b8152600401610b05906132a6565b610fa08161136660005490565b61137091906133bc565b11156113b45760405162461bcd60e51b8152602060048201526013602482015272139bc81b5bdc994813de1b5bdcd9481b19599d606a1b6044820152606401610b05565b6112c58282611fd9565b6009546001600160a01b031633146113e85760405162461bcd60e51b8152600401610b05906132a6565b6113f1826112c9565b6112c58161161b565b600061140582611ff3565b5192915050565b6009546001600160a01b031633146114365760405162461bcd60e51b8152600401610b05906132a6565b60105462010000900460ff161561145f5760405162461bcd60e51b8152600401610b059061327d565b6010805462ff0000191662010000179055565b600b805461147f90613489565b80601f01602080910402602001604051908101604052809291908181526020018280546114ab90613489565b80156114f85780601f106114cd576101008083540402835291602001916114f8565b820191906000526020600020905b8154815290600101906020018083116114db57829003601f168201915b505050505081565b60006001600160a01b03821661156c5760405162461bcd60e51b815260206004820152602b60248201527f455243373231413a2062616c616e636520717565727920666f7220746865207a60448201526a65726f206164647265737360a81b6064820152608401610b05565b506001600160a01b03166000908152600460205260409020546001600160801b031690565b6009546001600160a01b031633146115bb5760405162461bcd60e51b8152600401610b05906132a6565b6115c5600061219c565b565b6009546001600160a01b031633146115f15760405162461bcd60e51b8152600401610b05906132a6565b6010805461ff001981166101009182900460ff1615909102179055565b600c805461147f90613489565b6009546001600160a01b031633146116455760405162461bcd60e51b8152600401610b05906132a6565b60105462010000900460ff161561166e5760405162461bcd60e51b8152600401610b059061327d565b80516112c590600c906020840190612a95565b6040516bffffffffffffffffffffffff19606085901b1660208201526000906116c4906034016040516020818303038152906040528051906020012084846121ee565b949350505050565b600a60205281600052604060002081815481106116e857600080fd5b6000918252602090912001546001600160a01b0381169250600160a01b90046001600160601b0316905082565b6040805180820190915260008082526020820152610a0282611ff3565b606060028054610a1790613489565b606061174c826122d8565b60405160200161175c9190613102565b6040516020818303038152906040529050919050565b6001600160a01b0382163314156117cb5760405162461bcd60e51b815260206004820152601a60248201527f455243373231413a20617070726f766520746f2063616c6c65720000000000006044820152606401610b05565b3360008181526006602090815260408083206001600160a01b03871680855290835292819020805460ff191686151590811790915590519081529192917f17307eab39ab6107e8899845ad3d59bd9653f200f220920489ca2b5937696c31910160405180910390a35050565b600f805461147f90613489565b61184f848484611ba5565b61185b848484846123d5565b6118775760405162461bcd60e51b8152600401610b05906132db565b50505050565b600d805461147f90613489565b6060611897826000541190565b6118fb5760405162461bcd60e51b815260206004820152602f60248201527f4552433732314d657461646174613a2055524920717565727920666f72206e6f60448201526e3732bc34b9ba32b73a103a37b5b2b760891b6064820152608401610b05565b60105462010000900460ff1661191357610a026124e2565b61191b6124e2565b611924836122d8565b60405160200161175c9291906130d3565b6060600a6000838152602001908152602001600020805480602002602001604051908101604052809291908181526020016000905b828210156119b957600084815260209081902060408051808201909152908401546001600160a01b0381168252600160a01b90046001600160601b03168183015282526001909201910161196a565b505050509050919050565b6009546001600160a01b031633146119ee5760405162461bcd60e51b8152600401610b05906132a6565b6010805460ff19811660ff90911615179055565b6000610a02826124f1565b606060405180608001604052806043815260200161356260439139905090565b6009546001600160a01b03163314611a575760405162461bcd60e51b8152600401610b05906132a6565b6001600160a01b038116611abc5760405162461bcd60e51b815260206004820152602660248201527f4f776e61626c653a206e6577206f776e657220697320746865207a65726f206160448201526564647265737360d01b6064820152608401610b05565b611ac58161219c565b50565b6060600f8054611ad790613489565b159050611afa57600f611ae9836122d8565b60405160200161175c929190613147565b505060408051808201909152600e81526d20bb30b4b630b136329039b7b7b760911b602082015290565b60006001600160e01b0319821663152a902d60e11b1480610a025750610a028261258f565b60008281526005602052604080822080546001600160a01b0319166001600160a01b0387811691821790925591518593918516917f8c5be1e5ebec7d5bd14f71427d1e84f3dd0314c0f7b2291e5b200ac8c7c3b92591a4505050565b6000611bb082611ff3565b80519091506000906001600160a01b0316336001600160a01b03161480611be7575033611bdc84610a9a565b6001600160a01b0316145b80611bf957508151611bf99033610968565b905080611c635760405162461bcd60e51b815260206004820152603260248201527f455243373231413a207472616e736665722063616c6c6572206973206e6f74206044820152711bdddb995c881b9bdc88185c1c1c9bdd995960721b6064820152608401610b05565b846001600160a01b031682600001516001600160a01b031614611cd75760405162461bcd60e51b815260206004820152602660248201527f455243373231413a207472616e736665722066726f6d20696e636f72726563746044820152651037bbb732b960d11b6064820152608401610b05565b6001600160a01b038416611d3b5760405162461bcd60e51b815260206004820152602560248201527f455243373231413a207472616e7366657220746f20746865207a65726f206164604482015264647265737360d81b6064820152608401610b05565b611d4b6000848460000151611b49565b6001600160a01b0385166000908152600460205260408120805460019290611d7d9084906001600160801b0316613407565b82546101009290920a6001600160801b038181021990931691831602179091556001600160a01b03861660009081526004602052604081208054600194509092611dc99185911661339a565b82546001600160801b039182166101009390930a9283029190920219909116179055506040805180820182526001600160a01b0380871682526001600160401b03428116602080850191825260008981526003909152948520935184549151909216600160a01b026001600160e01b03199091169190921617179055611e508460016133bc565b6000818152600360205260409020549091506001600160a01b0316611ee157611e7a816000541190565b15611ee15760408051808201825284516001600160a01b0390811682526020808701516001600160401b039081168285019081526000878152600390935294909120925183549451909116600160a01b026001600160e01b03199094169116179190911790555b83856001600160a01b0316876001600160a01b03167fddf252ad1be2c89b69c2b068fc378daa952ba7f163c4a11628f55a4df523b3ef60405160405180910390a45b505050505050565b604080516001808252818301909252600091816020015b6040805180820190915260008082526020820152815260200190600190039081611f425790505090508181600081518110611f7f57611f7f61351f565b6020026020010151602001906001600160601b031690816001600160601b0316815250508281600081518110611fb757611fb761351f565b60209081029190910101516001600160a01b03909116905261187784826125fa565b6112c582826040518060200160405280600081525061277e565b6040805180820190915260008082526020820152612012826000541190565b6120715760405162461bcd60e51b815260206004820152602a60248201527f455243373231413a206f776e657220717565727920666f72206e6f6e657869736044820152693a32b73a103a37b5b2b760b11b6064820152608401610b05565b60007f000000000000000000000000000000000000000000000000000000000000000083106120d2576120c47f00000000000000000000000000000000000000000000000000000000000000008461342f565b6120cf9060016133bc565b90505b825b81811061213b576000818152600360209081526040918290208251808401909352546001600160a01b038116808452600160a01b9091046001600160401b0316918301919091521561212857949350505050565b508061213381613472565b9150506120d4565b5060405162461bcd60e51b815260206004820152602f60248201527f455243373231413a20756e61626c6520746f2064657465726d696e652074686560448201526e1037bbb732b91037b3103a37b5b2b760891b6064820152608401610b05565b600980546001600160a01b038381166001600160a01b0319831681179093556040519116919082907f8be0079c531659141344cd1fd0a4f28419497f9722a3daafe3b4186f6b6457e090600090a35050565b600083815b84518110156122ad5760008582815181106122105761221061351f565b6020026020010151905084828151811061222c5761222c61351f565b60200260200101516001141561226d57604080516020810185905290810182905260600160405160208183030381529060405280519060200120925061229a565b60408051602081018390529081018490526060016040516020818303038152906040528051906020012092505b50806122a5816134c4565b9150506121f3565b507f000000000000000000000000000000000000000000000000000000000000000014949350505050565b6060816122fc5750506040805180820190915260018152600360fc1b602082015290565b8160005b81156123265780612310816134c4565b915061231f9050600a836133d4565b9150612300565b6000816001600160401b0381111561234057612340613535565b6040519080825280601f01601f19166020018201604052801561236a576020820181803683370190505b5090505b84156116c45761237f60018361342f565b915061238c600a866134df565b6123979060306133bc565b60f81b8183815181106123ac576123ac61351f565b60200101906001600160f81b031916908160001a9053506123ce600a866133d4565b945061236e565b60006001600160a01b0384163b156124d757604051630a85bd0160e11b81526001600160a01b0385169063150b7a0290612419903390899088908890600401613224565b602060405180830381600087803b15801561243357600080fd5b505af1925050508015612463575060408051601f3d908101601f1916820190925261246091810190612ed5565b60015b6124bd573d808015612491576040519150601f19603f3d011682016040523d82523d6000602084013e612496565b606091505b5080516124b55760405162461bcd60e51b8152600401610b05906132db565b805181602001fd5b6001600160e01b031916630a85bd0160e11b1490506116c4565b506001949350505050565b6060600b8054610a1790613489565b60006001600160a01b0382166125635760405162461bcd60e51b815260206004820152603160248201527f455243373231413a206e756d626572206d696e74656420717565727920666f7260448201527020746865207a65726f206164647265737360781b6064820152608401610b05565b506001600160a01b0316600090815260046020526040902054600160801b90046001600160801b031690565b60006001600160e01b031982166380ac58cd60e01b14806125c057506001600160e01b03198216635b5e139f60e01b145b806125db57506001600160e01b0319821663780e9d6360e01b145b80610a0257506301ffc9a760e01b6001600160e01b0319831614610a02565b60005b81518110156127735760006001600160a01b03168282815181106126235761262361351f565b6020026020010151600001516001600160a01b031614156126865760405162461bcd60e51b815260206004820152601b60248201527f526563697069656e742073686f756c642062652070726573656e7400000000006044820152606401610b05565b8181815181106126985761269861351f565b6020026020010151602001516001600160601b0316600014156126fd5760405162461bcd60e51b815260206004820181905260248201527f526f79616c74792076616c75652073686f756c6420626520706f7369746976656044820152606401610b05565b6000838152600a60205260409020825183908390811061271f5761271f61351f565b6020908102919091018101518254600181018455600093845292829020815191909201516001600160601b0316600160a01b026001600160a01b03909116179101558061276b816134c4565b9150506125fd565b506112c58282612a58565b6000546001600160a01b0384166127e15760405162461bcd60e51b815260206004820152602160248201527f455243373231413a206d696e7420746f20746865207a65726f206164647265736044820152607360f81b6064820152608401610b05565b6127ec816000541190565b156128395760405162461bcd60e51b815260206004820152601d60248201527f455243373231413a20746f6b656e20616c7265616479206d696e7465640000006044820152606401610b05565b7f00000000000000000000000000000000000000000000000000000000000000008311156128b45760405162461bcd60e51b815260206004820152602260248201527f455243373231413a207175616e7469747920746f206d696e7420746f6f2068696044820152610ced60f31b6064820152608401610b05565b6001600160a01b0384166000908152600460209081526040918290208251808401845290546001600160801b038082168352600160801b909104169181019190915281518083019092528051909190819061291090879061339a565b6001600160801b0316815260200185836020015161292e919061339a565b6001600160801b039081169091526001600160a01b0380881660008181526004602090815260408083208751978301518716600160801b029790961696909617909455845180860186529182526001600160401b034281168386019081528883526003909552948120915182549451909516600160a01b026001600160e01b031990941694909216939093179190911790915582905b85811015612a4d5760405182906001600160a01b038916906000907fddf252ad1be2c89b69c2b068fc378daa952ba7f163c4a11628f55a4df523b3ef908290a4612a1160008884886123d5565b612a2d5760405162461bcd60e51b8152600401610b05906132db565b81612a37816134c4565b9250508080612a45906134c4565b9150506129c4565b506000819055611f23565b7f3fa96d7b6bcbfe71ef171666d84db3cf52fa2d1c8afdb1cc8e486177f208b7df8282604051612a8992919061332e565b60405180910390a15050565b828054612aa190613489565b90600052602060002090601f016020900481019282612ac35760008555612b09565b82601f10612adc57805160ff1916838001178555612b09565b82800160010185558215612b09579182015b82811115612b09578251825591602001919060010190612aee565b50610e889291505b80821115610e885760008155600101612b11565b60006001600160401b03831115612b3e57612b3e613535565b612b51601f8401601f1916602001613347565b9050828152838383011115612b6557600080fd5b828260208301376000602084830101529392505050565b80356001600160a01b0381168114612b9357600080fd5b919050565b60008083601f840112612baa57600080fd5b5081356001600160401b03811115612bc157600080fd5b6020830191508360208260051b8501011115612bdc57600080fd5b9250929050565b600082601f830112612bf457600080fd5b81356020612c09612c0483613377565b613347565b80838252828201915082860187848660051b8901011115612c2957600080fd5b60005b85811015612c4857813584529284019290840190600101612c2c565b5090979650505050505050565b600082601f830112612c6657600080fd5b612c7583833560208501612b25565b9392505050565b600060208284031215612c8e57600080fd5b612c7582612b7c565b60008060408385031215612caa57600080fd5b612cb383612b7c565b9150612cc160208401612b7c565b90509250929050565b600080600060608486031215612cdf57600080fd5b612ce884612b7c565b9250612cf660208501612b7c565b9150604084013590509250925092565b60008060008060808587031215612d1c57600080fd5b612d2585612b7c565b9350612d3360208601612b7c565b92506040850135915060608501356001600160401b03811115612d5557600080fd5b8501601f81018713612d6657600080fd5b612d7587823560208401612b25565b91505092959194509250565b600080600060608486031215612d9657600080fd5b612d9f84612b7c565b92506020808501356001600160401b0380821115612dbc57600080fd5b818701915087601f830112612dd057600080fd5b8135612dde612c0482613377565b8082825285820191508585018b878560051b8801011115612dfe57600080fd5b600095505b83861015612e21578035835260019590950194918601918601612e03565b50965050506040870135925080831115612e3a57600080fd5b5050612e4886828701612be3565b9150509250925092565b60008060408385031215612e6557600080fd5b612e6e83612b7c565b915060208301358015158114612e8357600080fd5b809150509250929050565b60008060408385031215612ea157600080fd5b612eaa83612b7c565b946020939093013593505050565b600060208284031215612eca57600080fd5b8135612c758161354b565b600060208284031215612ee757600080fd5b8151612c758161354b565b600060208284031215612f0457600080fd5b81356001600160401b03811115612f1a57600080fd5b6116c484828501612c55565b60008060408385031215612f3957600080fd5b82356001600160401b0380821115612f5057600080fd5b612f5c86838701612c55565b93506020850135915080821115612f7257600080fd5b50610c9885828601612c55565b600060208284031215612f9157600080fd5b5035919050565b600080600080600060608688031215612fb057600080fd5b8535945060208601356001600160401b0380821115612fce57600080fd5b612fda89838a01612b98565b90965094506040880135915080821115612ff357600080fd5b5061300088828901612b98565b969995985093965092949392505050565b6000806040838503121561302457600080fd5b50508035926020909101359150565b600081518084526020808501945080840160005b8381101561308057815180516001600160a01b031688528301516001600160601b03168388015260409096019590820190600101613047565b509495945050505050565b600081518084526130a3816020860160208601613446565b601f01601f19169290920160200192915050565b600081516130c9818560208601613446565b9290920192915050565b600083516130e5818460208801613446565b8351908301906130f9818360208801613446565b01949350505050565b7f68747470733a2f2f6e66742e6f786d6f73652e636f2f72656e6465722f312f0081526000825161313a81601f850160208701613446565b91909101601f0192915050565b7368747470733a2f2f617277656176652e6e65742f60601b8152600060146000855481600182811c91508083168061318057607f831692505b60208084108214156131a057634e487b7160e01b86526022600452602486fd5b8180156131b457600181146131c9576131fa565b60ff1986168a890152848a01880196506131fa565b60008c81526020902060005b868110156131f05781548c82018b01529085019083016131d5565b505087858b010196505b50505050505061321a61321482602f60f81b815260010190565b866130b7565b9695505050505050565b6001600160a01b038581168252841660208201526040810183905260806060820181905260009061321a9083018461308b565b602081526000612c756020830184613033565b602081526000612c75602083018461308b565b6020808252600f908201526e10dbdb9d1c9858dd081cd9585b1959608a1b604082015260600190565b6020808252818101527f4f776e61626c653a2063616c6c6572206973206e6f7420746865206f776e6572604082015260600190565b60208082526033908201527f455243373231413a207472616e7366657220746f206e6f6e204552433732315260408201527232b1b2b4bb32b91034b6b83632b6b2b73a32b960691b606082015260800190565b8281526040602082015260006116c46040830184613033565b604051601f8201601f191681016001600160401b038111828210171561336f5761336f613535565b604052919050565b60006001600160401b0382111561339057613390613535565b5060051b60200190565b60006001600160801b038083168185168083038211156130f9576130f96134f3565b600082198211156133cf576133cf6134f3565b500190565b6000826133e3576133e3613509565b500490565b6000816000190483118215151615613402576134026134f3565b500290565b60006001600160801b0383811690831681811015613427576134276134f3565b039392505050565b600082821015613441576134416134f3565b500390565b60005b83811015613461578181015183820152602001613449565b838111156118775750506000910152565b600081613481576134816134f3565b506000190190565b600181811c9082168061349d57607f821691505b602082108114156134be57634e487b7160e01b600052602260045260246000fd5b50919050565b60006000198214156134d8576134d86134f3565b5060010190565b6000826134ee576134ee613509565b500690565b634e487b7160e01b600052601160045260246000fd5b634e487b7160e01b600052601260045260246000fd5b634e487b7160e01b600052603260045260246000fd5b634e487b7160e01b600052604160045260246000fd5b6001600160e01b031981168114611ac557600080fdfe68747470733a2f2f697066732e696f2f697066732f516d597835714d756d5631716a6765436376764339465755714158593771654c6552327977594d554a3931795439a2646970667358221220e2411f176ca0a75277ee2c55ca77f89b47257901db6425ee207258bec9e1b53164736f6c634300080700333566323337323864336630663930653333656132363539396138356532663565646661383836366133626261623966366166386664313764313331323662346468747470733a2f2f697066732e696f2f697066732f516d4e6454344a6d66355a5257476f7341614c714d6867423653597769446a544d6a4a4b516d4136797a52574b4c",
  "immutableReferences": {
    "1238": [
      {
        "length": 32,
        "start": 8309
      },
      {
        "length": 32,
        "start": 8351
      },
      {
        "length": 32,
        "start": 10299
      }
    ],
    "2944": [
      {
        "length": 32,
        "start": 1124
      },
      {
        "length": 32,
        "start": 8880
      }
    ]
  },
  "source": "// SPDX-License-Identifier: MIT\npragma solidity 0.8.7;\n \nimport \"@openzeppelin/contracts/access/Ownable.sol\";\nimport \"./ERC721A.sol\";\nimport \"./Whitelist.sol\";\nimport \"./ERC2981ContractWideRoyalties.sol\";\nimport \"@openzeppelin/contracts/utils/Strings.sol\";\nimport \"./@rarible/royalties/contracts/impl/RoyaltiesV2Impl.sol\";\nimport \"./@rarible/royalties/contracts/LibPart.sol\";\nimport \"./@rarible/royalties/contracts/LibRoyaltiesV2.sol\";\n\ncontract Oxmose is ERC721A, ERC2981ContractWideRoyalties, Ownable, Whitelist, RoyaltiesV2Impl {\n \n    string public baseURI = \"https://ipfs.io/ipfs/QmNdT4Jmf5ZRWGosAaLqMhgB6SYwiDjTMjJKQmA6yzRWKL\"; \n    string public jsonAttributesIPFSHash; \n    string public jsonAttributesProvenance = \"5f23728d3f0f90e33ea26599a85e2f5edfa8866a3bbab9f6af8fd17d13126b4d\";\n    bytes32 public whitelistMerkle = 0xc8645472e961de1db838b309d8c7beeaed3e9386a135470809b24d5e238d4215;\n    string public arweaveHash;\n\n    bool public saleActive = false;\n    bool public whitelistActive = true;\n    bool public contractSealed = false;\n\n    // Price and supply definition\n    uint constant public OXMOSE_PRICE = 0.3 ether; \n    uint constant public OXMOSE_MAX_SUPPLY = 4000;\n    uint constant public OXMOSE_AIRDROP_LIMIT = 20;\n  \n    //  EIP 2981 Standard Implementation\n    address constant public ROYALTY_RECIPIENT = 0x286FF2C8C944085cA876bA04026c4f44Ae1Fc7Fb; // value percentage (using 2 decimals - 10000 = 100, 0 = 0)\n    uint96 constant public ROYALTY_PERCENTAGE = 750; // value percentage (using 2 decimals - 10000 = 100, 0 = 0)\n \n    address constant private WALLET_1 = 0xd424A453B92b05AeD5195f9221b86c20B19516cB;\n    address constant private WALLET_2 = 0x1BEb6235e160B4007b01E74483De4FBE4A10E233;\n    address constant private WALLET_3 = 0x1773b544f3EA46CD1D4CC6aACa8e5de337e26889;\n \n    constructor ()\n        ERC721A(\"Oxmose Season 1\", \"OXO1\", 10) \n        Whitelist(whitelistMerkle)\n    {\n        _setRoyalties(ROYALTY_RECIPIENT, ROYALTY_PERCENTAGE);\n    }\n    \n    function tokenURI(uint256 tokenId)\n        public\n        view\n        virtual\n        override\n        returns (string memory)\n    {\n        require(_exists(tokenId), \"ERC721Metadata: URI query for nonexistent token\");\n \n        if(!contractSealed) {\n            return _baseURI();\n        }\n \n        return string(abi.encodePacked(_baseURI(), Strings.toString(tokenId)));\n    }\n \n    function _baseURI() internal view virtual override returns (string memory) {\n        return baseURI;\n    }\n\n    function sealContract() public onlyOwner {\n        require(!contractSealed, \"Contract sealed\");\n        contractSealed = true;\n    }\n \n    function setBaseURI(string memory _newUri) public onlyOwner {\n        require(!contractSealed, \"Contract sealed\");\n        baseURI = _newUri;\n    }\n\n    function setJsonAttributesIPFSHash(string memory _hash) public onlyOwner {\n        require(!contractSealed, \"Contract sealed\");\n        jsonAttributesIPFSHash = _hash;\n    }\n\n    function reveal(string memory _newUri, string memory _hash) public onlyOwner {\n        setBaseURI(_newUri);\n        setJsonAttributesIPFSHash(_hash);\n    }\n\n    function getOxmoseAPIURI(uint tokenId) public view returns(string memory) {\n        return string(abi.encodePacked(\"https://nft.oxmose.co/render/1/\", Strings.toString(tokenId)));\n    }\n \n    function getArweaveURI(uint tokenId) public view returns(string memory) {\n        if(bytes(arweaveHash).length != 0) {\n            return string(abi.encodePacked(\"https://arweave.net/\", arweaveHash, \"/\", Strings.toString(tokenId)));\n        }\n        \n        return \"Available soon\";\n    }\n \n    function setArweaveHash(string memory _hash) public onlyOwner {\n        require(bytes(arweaveHash).length != 0, \"Already set\");\n        arweaveHash = _hash;\n    }  \n\n    function toggleWhitelist() public onlyOwner {\n        whitelistActive = !whitelistActive;\n    }\n    \n    function toggleSales() public onlyOwner {\n        saleActive = !saleActive;\n    }\n    \n    function mint(uint256 quantity, bytes32[] calldata proof, uint256[] calldata positions) public payable {\n        require(tx.origin == msg.sender, \"The caller is another contract\"); \n        require(saleActive, \"Sale is not started yet\");\n        require(msg.value >= OXMOSE_PRICE * quantity, \"Wrong price\");\n        require(numberMinted(msg.sender) <= 5, \"You can't mint more Oxmose\");\n        require(totalSupply() + quantity <= OXMOSE_MAX_SUPPLY - OXMOSE_AIRDROP_LIMIT, \"No more Oxmose left\");\n\n        if(whitelistActive) {\n           require(isWhitelisted(msg.sender, proof, positions), \"Not on the whitelist\");\n        }\n\n        payable(WALLET_1).transfer(msg.value*49/100);\n        payable(WALLET_2).transfer(msg.value*49/100);\n        payable(WALLET_3).transfer(msg.value*2/100);\n\n        setRoyalties(totalSupply(), payable(ROYALTY_RECIPIENT), ROYALTY_PERCENTAGE);\n        _safeMint(msg.sender, quantity);\n    }\n \n    function airdropOxmose(address receiver, uint256 quantity) public onlyOwner {\n        require(totalSupply() + quantity <= OXMOSE_MAX_SUPPLY, \"No more Oxmose left\");\n        _safeMint(receiver, quantity);\n    }\n \n    function numberMinted(address owner) public view returns (uint256) {\n        return _numberMinted(owner);\n    }\n \n    function getOwnershipData(uint256 tokenId) external view returns (TokenOwnership memory) {\n        return ownershipOf(tokenId);\n    }\n \n    function setRoyalties(uint _tokenId, address payable _royaltiesReceipientAddress, uint96 _percentageBasisPoints) internal {\n        LibPart.Part[] memory _royalties = new LibPart.Part[](1);\n        _royalties[0].value = _percentageBasisPoints;\n        _royalties[0].account = _royaltiesReceipientAddress;\n        _saveRoyalties(_tokenId, _royalties);\n    }\n\n    function supportsInterface(bytes4 interfaceId) public view virtual override(ERC721A, ERC2981Base) returns (bool) {\n        if(interfaceId == LibRoyaltiesV2._INTERFACE_ID_ROYALTIES) {\n            return true;\n        }\n        return super.supportsInterface(interfaceId);\n    }                       \n\n    function contractURI() public view returns (string memory) {\n        return \"https://ipfs.io/ipfs/QmYx5qMumV1qjgeCcvvC9FWUqAXY7qeLeR2ywYMUJ91yT9\";\n    }                                                                                                                                                                                                    \n}",
  "sourcePath": "/Applications/MAMP/htdocs/oxmose-mint/contracts/Oxmose.sol",
  "compiler": {
    "name": "solc",
    "version": "0.8.7+commit.e28d00a7.Emscripten.clang"
  },
  "schemaVersion": "3.4.4",
  "updatedAt": "2022-02-13T18:11:44.540Z",
  "networkType": "ethereum",
  "devdoc": {
    "kind": "dev",
    "methods": {
      "approve(address,uint256)": {
        "details": "See {IERC721-approve}."
      },
      "balanceOf(address)": {
        "details": "See {IERC721-balanceOf}."
      },
      "getApproved(uint256)": {
        "details": "See {IERC721-getApproved}."
      },
      "isApprovedForAll(address,address)": {
        "details": "See {IERC721-isApprovedForAll}."
      },
      "name()": {
        "details": "See {IERC721Metadata-name}."
      },
      "owner()": {
        "details": "Returns the address of the current owner."
      },
      "ownerOf(uint256)": {
        "details": "See {IERC721-ownerOf}."
      },
      "renounceOwnership()": {
        "details": "Leaves the contract without owner. It will not be possible to call `onlyOwner` functions anymore. Can only be called by the current owner. NOTE: Renouncing ownership will leave the contract without an owner, thereby removing any functionality that is only available to the owner."
      },
      "royaltyInfo(uint256,uint256)": {
        "params": {
          "_tokenId": "- the NFT asset queried for royalty information",
          "_value": "- the sale price of the NFT asset specified by _tokenId"
        },
        "returns": {
          "receiver": "- address of who should be sent the royalty payment",
          "royaltyAmount": "- the royalty payment amount for value sale price"
        }
      },
      "safeTransferFrom(address,address,uint256)": {
        "details": "See {IERC721-safeTransferFrom}."
      },
      "safeTransferFrom(address,address,uint256,bytes)": {
        "details": "See {IERC721-safeTransferFrom}."
      },
      "setApprovalForAll(address,bool)": {
        "details": "See {IERC721-setApprovalForAll}."
      },
      "symbol()": {
        "details": "See {IERC721Metadata-symbol}."
      },
      "tokenByIndex(uint256)": {
        "details": "See {IERC721Enumerable-tokenByIndex}."
      },
      "tokenOfOwnerByIndex(address,uint256)": {
        "details": "See {IERC721Enumerable-tokenOfOwnerByIndex}. This read function is O(totalSupply). If calling from a separate contract, be sure to test gas first. It may also degrade with extremely large collection sizes (e.g >> 10000), test for your use case."
      },
      "tokenURI(uint256)": {
        "details": "See {IERC721Metadata-tokenURI}."
      },
      "totalSupply()": {
        "details": "See {IERC721Enumerable-totalSupply}."
      },
      "transferFrom(address,address,uint256)": {
        "details": "See {IERC721-transferFrom}."
      },
      "transferOwnership(address)": {
        "details": "Transfers ownership of the contract to a new account (`newOwner`). Can only be called by the current owner."
      }
    },
    "version": 1
  },
  "userdoc": {
    "kind": "user",
    "methods": {
      "merkleRoot()": {
        "notice": "root of merkle tree"
      }
    },
    "version": 1
  }
}